:020000040800F2
:1000000060090020F9010008B33F00083D3E0008E8
:10001000B13F0008CD2200086D4A00080000000032
:100020000000000000000000000000008B430008FA
:100030001323000800000000894300088D430008D6
:10004000130200081302000813020008130200083C
:10005000130200081302000813020008130200082C
:10006000130200081302000813020008130200081C
:100070001302000813020008D1220008DD22000844
:1000800013020008130200081302000813020008FC
:1000900013020008130200081302000813020008EC
:1000A00013020008130200081302000813020008DC
:1000B0001302000813020008F143000813020008AD
:1000C00013020008130200081302000813020008BC
:1000D00013020008614A0008130200081302000816
:1000E000130200081302000813020008130200089C
:1000F000130200081302000813020008130200088C
:10010000130200081302000813020008130200087B
:10011000130200081302000813020008130200086B
:10012000130200081302000813020008130200085B
:1001300000F002F800F050F80AA090E8000C8244A9
:100140008344AAF10107DA4501D100F045F8AFF286
:10015000090EBAE80F0013F0010F18BFFB1A43F0A5
:10016000010318477C5800009C580000103A24BF37
:1001700078C878C1FAD8520724BF30C830C144BF0C
:1001800004680C607047000000230024002500264E
:10019000103A28BF78C1FBD8520728BF30C148BFEA
:1001A0000B607047662905F03B83642900F0588096
:1001B000002070471FB500F0B7FE040000200021AA
:1001C00004F082FE401C60600020002104F066FE06
:1001D000E0601FBD10B510BD01F06CF91146FFF7CE
:1001E000E9FF04F055FD01F0C9FB03B4FFF7F2FF8E
:1001F00003BC01F02FFC0000094880470948004774
:10020000FEE7FEE7FEE7FEE7FEE7FEE7FEE7FEE7C6
:10021000FEE7FEE704480549054A064B7047000023
:10022000EF4300083101000860030020600900204E
:1002300060050020600500200FB41CB5074B06AA1E
:100240007B4469460090059800F0A3FB00206946B6
:1002500000F0B2FB1CBC5DF814FB00007507000049
:100260002DE9F0410646002410687529314616A58F
:1002700010D0AFF30080002802DA404213A507E057
:1002800031688A0701D512A502E0490704D511A5F6
:10029000012401E0AFF3008000210A2206F12407C7
:1002A00009E0B0FBF2FCB0FBF2F302FB1C003030C3
:1002B00078541846491C0028F3D123462A46304674
:1002C000BDE8F04100F0F7B8000000002D0000008C
:1002D0002B000000200000002DE9F0474FF0000A3D
:1002E00089460446C0F820A02046E16888470028D7
:1002F00076D0252806D0D4E901219047206A401CF9
:100300002062F1E7E168204600258847C4F81CA078
:1003100006460027C4F818A02A2E09D0304604F05B
:100320004AFC38B304EB8708303EC8F8186019E07F
:1003300059F8041B204604EB87029161E168884765
:10034000012F064618D1E069002820DA25F02005A3
:100350001DE0D8F8180000EB800006EB40003038B4
:10036000C8F818002046E1688847064604F023FCD8
:100370000028EED1012F0AD02E2E08D12046E168A8
:1003800088477F1C0646022F45F02005C4DBA06984
:10039000002803DA404245F00105A061E80701D0DA
:1003A00025F01005B6B1A6F14100192802D8203673
:1003B00045F400654A463146204625604D46FFF724
:1003C000F1FE58B1012806D0ED1D25F0070000F11F
:1003D000080989E704E005F1040985E730468AE762
:1003E000206ABDE8F08700000FB400B58DB010A9F9
:1003F000099000910B904FF0FF300A9000200C9074
:10040000064878440690064878446A4607900F9953
:1004100009A800F059FD0DB05DF814FBE30A0000D7
:10042000FB0A000010B5431C02E010F8011B71B17B
:100430008107FAD14FF0013202C88C1A8C4314EABA
:10044000C211F9D0C01A0A0603D0C01E10BDC01ACE
:1004500010BD0A0401D0801E10BD0902FCD0401E50
:1004600010BD4FF0000200B5134694469646203961
:1004700022BFA0E80C50A0E80C50B1F12001BFF45D
:10048000F7AF090728BFA0E80C5048BF0CC05DF8C3
:1004900004EB890028BF40F8042B08BF704748BF11
:1004A00020F8022B11F0804F18BF00F8012B704785
:1004B0007047704770472DE9F0470D4699469246C0
:1004C000044600F124080168880604D5E06921F09B
:1004D0001001216000E00120A84201DD471B00E07F
:1004E0000027A1697A1902EB0900081AA061207897
:1004F000C00602D42046AFF30080002608E0D4E90D
:1005000001211AF806009047206A401C761C2062E0
:100510004E45F4DB2078C0060AD52046AFF30080B4
:1005200006E0D4E9012130209047206A401C206277
:10053000381EA7F10107F4DC07E0D4E9012118F81F
:1005400005009047206A401C2062281EA5F1010585
:10055000F3DC2046AFF300802078000602D50220AD
:10056000BDE8F0870120FBE770472DE9FF4F0C46FF
:100570001E464FF0FF378BB0D2E90001DDF86080F6
:100580000A908A46C1F30A5505B93D46002108463E
:100590004FF00000BAF1000F00F4400005DA00EB64
:1005A00080004FF4400101EA50004FEA9059B9F140
:1005B000010F00DDB9460A9850EA4A000ED044F611
:1005C0001050A5F2FF3545432F14B8F1000F1ED08F
:1005D0007542291E1EDDC9F100021CE0B8F1010FB1
:1005E0004FF0000001D0302103E0F24305E0215438
:1005F000401CB042FBDB30460022002121540B9905
:10060000C1F80880C1E900200FB0BDE8F08FBD1B24
:100610006D1CDEE74A4600DA694206A800F0D4FE07
:1006200006AB93E8070003AB83E8070050460A993E
:1006300001F017FA8DE80700A0F500501F38009070
:100640000398002D0ADD42F21F014A4608440023A8
:1006500003A90390684601F0C3FC09E0A0F500502F
:100660004A461F38002303A90390684601F0E2FCC4
:100670008DE807000004000C03D04FF0FF30410864
:1006800000E01046B8F1000F03D00022009215469A
:100690001EE0751E05D400F04FFC303262556D1E11
:1006A000F9D5B3460122084302D000227F1C04E0A2
:1006B0002078302801D100227F1E002A099784D09B
:1006C0001DE0112D07DA00F037FC303262556D1C49
:1006D00050EA0102F5D1084302D00098C8B10EE0FB
:1006E0000021681E05E0235C625C63542254401EB6
:1006F000491C8142F7DBAB46A81B401E0990002035
:1007000004F80B000B98099AC0F80880C0E9002B88
:100710007AE711264FF0000857E72DE9F04F884699
:100720000446D21D22F0070191B0D1E90001CDE9C4
:100730000A0104F09CF902460B98C00F01D02D204D
:1007400007E02068810701D52B2002E0202101EA83
:10075000C000032A099001D0072A05DB0346414661
:10076000204600F037FC0BE12078800601D5E069D7
:1007700000E00620B8F1650F814606D0B8F1660F9B
:1007800018D0B8F1670F70D131E00020B9F1110F26
:10079000009001DB112301E009F101030AAA01A97C
:1007A0000CA8FFF7E2FEDDE90C70002609F1010557
:1007B000834647E001204B4600904FF000470AAACD
:1007C00001A90CA8FFF7D1FEDDE90DB00C995D463B
:1007D000002610B909F101000D18B9EB050003D48A
:1007E000C0F1FF3609F10105A5EB09002BE0B9F1D5
:1007F000010F01DA4FF001090020B9F1110F00904B
:10080000484601DD112300E003460AAA01A90CA80D
:10081000FFF7ABFEDDE90C704D46002683462078DD
:1008200000070AD4AB4500DA5D4601A8012D04DDBE
:10083000411911F8011C302907D04F4502DA17F190
:10084000040F04DA012082460FE06D1EEEE7002F50
:1008500002DCED1B3E4403E0781CA84200DD7D1C59
:10086000B81B00F1010A4FF000472078000703D4BD
:10087000AA4501DB4FF0FF3A0021B7F1004F0DF11F
:1008800043088DF8431024D002202B23002F01DAD7
:100890007F422D230A21021EA0F1010000DC5FB17E
:1008A00097FBF1FC97FBF1F201FB1C7C17460CF166
:1008B000300C08F801CDEEE7A8F1010003702188A3
:1008C000090501D5452100E06521A0F1010800F8E6
:1008D000011C09980FA9A1EB0807FF1D00B1012019
:1008E000411901EBEA70A1693844081A401EA06161
:1008F0002078C00602D42046AFF30080099828B1C2
:10090000D4E901219047206A401C20622078C0066B
:1009100022D52046AFF300801EE0002E04DBB34555
:1009200002DD01A8805D00E03020D4E9012190477C
:10093000206A401C2062761CAAF101005FEA000ACE
:100940000AD100F0F1FAC0680168405CD4E90121E5
:100950009047206A401C2062281EA5F10105DCDCBE
:1009600007E0D4E9012118F8010B9047206A401CE8
:100970002062381EA7F10107F3DC2046AFF30080A8
:10098000032011B041E6000001694A1C02610878A9
:10099000704700B58FB0CDE90131002105910549BF
:1009A0007944CDE9031011466846FFF795FC0FB076
:1009B00000BD0000E5FFFFFF0A6802F8010B0A60B6
:1009C000704700002DE9FF4F06468BB00878FF28DE
:1009D00006D0491C2D2805D000244FF0000908E05E
:1009E00000200CE00124F8E709EB8903491C00EB27
:1009F00043090878FF28F7D114B1C9F100008146F6
:100A0000107800252C46AA4629462D2801D02B28EF
:100A100004D1521C2D2813D0002082468B4610781A
:100A2000FF280FD04FF0000C0A21521CA5FB0178C3
:100A300004FB018105FB0C11C5194BEB0104EEE72A
:100A40000120EAE7002108464FF00000BAF1000F4C
:100A500002D000EB80004008C0F38157012F01DD78
:100A60004FF0FF370E9955EA040009EB01080BD04F
:100A70004FF0020918F5FA7F16DA4FEACA70002F14
:100A8000706008DD012007E04FEACA70C6E900B0D7
:100A90000FB0BDE8F08F0020306000F049FAC0F8D8
:100AA00000901821084616E0B8F5FA7F18DD002FEF
:100AB00002DAF748784401E0F6487844D0E90010BB
:100AC000C6E9001040EACA70706000F031FAC0F860
:100AD0000090142108460FB0BDE8F04F04F09DBE11
:100AE000002108464FF00000B8F10001099002DA39
:100AF000C7F1000200E03A4601DAC8F1000106A899
:100B000000F062FC06AB93E8070003AB83E8070044
:100B100044F23E005BEA04010090584604D144F2DE
:100B20001E012C465D460091210C0904014306D1AB
:100B30000099240444EA15442D041039009104F06E
:100B40007F41014306D10099240244EA15642D0235
:100B50000839009104F07041014306D10099240145
:100B600044EA15742D01091F009104F0404101432E
:100B700006D10099A40044EA9574AD00891E009145
:100B800004F00041084304D100986D196441401EEF
:100B900000904FF001033A466846B8F1000FCDE9E6
:100BA000014503A902DD01F05AFA01E001F02DFA36
:100BB000BAF1000F04460D4601D084F00044002134
:100BC00008464FF00000099940F2FF77484010F0C6
:100BD0000C0F07D124F00040284303D0C4F30A507F
:100BE000B84212D100F0A4F9C0F80090C4F30A5042
:100BF000B8420AD1A8487844D0E90010C6E90010EC
:100C000004F000410843706042E7C6E900543FE742
:100C10002DE9FF4F1F464FF0000A4FF0FF384546C1
:100C200091B0D7E90146CDF83CA000F07DF9C0684D
:100C30000168405C1090B96912986D1C8847396A48
:100C4000814688470028F6D1B9F1FF3F0AD0002E2F
:100C500024F4D06411DDB9F12B0F08D0B9F12D0FB8
:100C60000BD102E0404615B013E744F48064B96943
:100C700012986D1C8847761E8146600504A901D52F
:100C80002D2000E02B20002E01F1010B0DF130088A
:100C90008DF810003FDDB9F1690F08D0B9F1490FA7
:100CA00005D0B9F16E0F02D0B9F14E0F1CD13B4601
:100CB00001A8009580E85002DDE912126FF00200F1
:100CC00004F014FEC11CCED10EE0B96912986D1C5F
:100CD000884781461398761E44F4007405600F9887
:100CE000401C002E0F9016DDB9F1300FEDD0B9F198
:100CF000780F02D0B9F1580F0DD10F9801280AD101
:100D00003B46CDE90054DDE91212001F029604F0C3
:100D1000EBFDC11CA7D1109989453ED144F0800458
:100D200006E01399681CAAF1010A44F400740860F3
:100D3000B9696D1C1298761E884730288146F0D01C
:100D40002BE01099894505D1200603D4761E44F086
:100D5000800418E0484603F02EFF08B3761E0DF11C
:100D600023018B4544F4007408D2A9F130000BF83C
:100D7000010B200607D5AAF1010003E0200602D4EA
:100D80000AF101008246A00502D51399681C08608B
:100D9000B96912986D1C88478146002ED1DC53E05A
:100DA000002E51DDB9F1650F02D0B9F1450F4BD1DD
:100DB000A00549D5B9696D1C1298761E24F44074BB
:100DC0008847002E81460CDD2B2804D0B9F12D0F69
:100DD00007D144F48074B96912986D1C8847761E57
:100DE0008146E00501D52D2100E02B2108F8011BEB
:100DF000CDF8008021E0761E0DF13901884544F4DC
:100E000000740CD2A9F1300010F0FF0088F8000047
:100E100002D10099884509D908F1010806E0E005EA
:100E200001D51E4801E042F20F708246B96912985E
:100E30006D1C8847814613980560002E04DD4846E6
:100E400003F0B9FE0028D6D1F96912988847FF202F
:100E500053468BF8000088F8000000200A900B90A1
:100E600004AA0CA90AA8FFF7ADFDA00502D46FF0F3
:100E70000100F8E614F0240F12D0E0071CD1386806
:100E8000DDE90A12031D3B600068C0E9001213E0AF
:100E9000504F0000424F0000064E0000F1D8FFFF07
:100EA0000AA9684603F016FEE00705D13868009AE3
:100EB000011D3960006802602846D4E602681144CA
:100EC0001378016018467047D16005497944516133
:100ED00004497944116200211161114600F0BAB849
:100EE000EDFFFFFFED000000426842B1016811F81C
:100EF000013B23B1521EC0E9001218467047012180
:100F0000C160881E704742685AB1C368016843B91E
:100F100083688B4205D0491E521CC0E90012002094
:100F200070474FF0FF3070470048704720030020A3
:100F3000004870470003002030B5B0F10A024FEAC4
:100F4000900E71F100034EEA817EB0EB0E0061EB72
:100F500091014FEA101E4EEA017E10EB0E0041EBAC
:100F600011114FEA102E4EEA016E10EB0E0041EB0C
:100F700011214FEA104E4EEA014E10EB0E0041EBEC
:100F80001141401841F100014FEAD00040EA4170A0
:100F90004FEAD10110EB80054FEA810444EA9074D6
:100FA00044EB01046D1944EB0404521BA3414FF0C0
:100FB000000348BF0A3200D530BD401C41F100019A
:100FC00030BD10B5044600F09BFA0068005D00F0EB
:100FD000010010BD2DE9F0411F46044603260168BB
:100FE000072A01F4006004DB08B116A505E016A588
:100FF00003E008B115A500E015A521F01000206060
:10100000A069C01EA0610FB1401EA0612046AFF3D1
:1010100000804FB1D4E9012138469047206A401C36
:101020002062C01C206206E0206AFAE7D4E90121B0
:1010300015F8010B9047761EF8D22046AFF30080DA
:10104000BDE8F0814E414E006E616E00494E460093
:10105000696E66002DE9F34F4FF0000A0C465646C4
:101060008DB001200C9001F10C000B9062690B987F
:1010700001219047051E2DD0252D2CD0216A8847AF
:10108000C0B162690B9801219047216A8847002806
:10109000F7D16269411E0B98904700E0761CA16968
:1010A0000D988847216A88470028F7D1E1690D9893
:1010B0008847DBE7A1690D988847A842074601D118
:1010C000761CD3E7E1690D9888477F1C02D1BAF1FD
:1010D000000F6FD06BE162690B9800273D463946DF
:1010E00090472A2804D162690B9801219047012575
:1010F000DFF8D08262690B9801219047A0F130019E
:101100000A290AD24745E5DC07EB870100EB4107D6
:10111000303FDFD445F01005ECE7E90601D46FF06D
:1011200000476C280AD04C2814D0682815D06A28AB
:101130000DD074281CD07A281AD01DE062690B9853
:10114000012190476C2802D045F0040514E045F0D9
:1011500002050DE045F020050AE062690B980121C7
:101160009047682802D045F0080505E045F4006581
:1011700062690B9801219047C4E9015765283DD069
:1011800019DC58287AD00CDC452837D004DC252817
:1011900026D041289ED131E046282FD0472899D12A
:1011A0002CE05B2877D0612828D063287CD0642885
:1011B00023D15AE0F6E06F2848D008DC66281DD01D
:1011C00067281BD0692821D06E2816D127E0702807
:1011D00045D0732868D0752847D078280DD14DE0C8
:1011E000A1690D988847252805463FF469AFE16954
:1011F0000D9888476D1C3FF46AAFD8E00D992346DF
:101200006A466FF0010004F06DFBC5E045F0400058
:1012100023464FF000026060A80736D43EE0E8079E
:101220007FF447AF2068011D21600068290501D5C2
:1012300006701BE7290701D5068017E7A90703D524
:10124000F117C0E9006111E706600FE745F04000C3
:1012500023464FF008026060A80716D41EE040F64F
:101260000E0125EA0100606016E045F040002346CB
:101270004FF00A026060A80707D40FE045F0400075
:101280006060A80708D5234610220D996FF0010071
:10129000AFF3008080E007E0102223460D996FF045
:1012A0000100AFF3008077E04FF0000963284F465C
:1012B000C8464B46CB4602D05B2806D038E0E8064D
:1012C00001D40120A060012732E06269D4F80CB09B
:1012D0000B98012190475E2807D14FF0010949463C
:1012E0006269D4F80CB00B989047216939B9002194
:1012F0000A4603AB43F82120491C0829FADBD8B37E
:10130000216949B308F1010862690B9801219047EE
:101310005D28F4D1B9F1000F09D0002003A951F8DC
:101320002020D24341F82020401C0828F7DB03ABE3
:101330002069002820794FEA40701ED05B46224683
:10134000CDF80080CDE901970D9900286FF00100DC
:1013500020DAAFF300801FE0C11703AA00EBD161D0
:101360004B1121F01F0102EB8302411A1368012087
:10137000884003431360C7E719E00D99224600280F
:101380006FF00100009702DAAFF3008004E0AFF3E2
:10139000008001E0AFF3008000280ADA401C06D18B
:1013A0000C9820B14FF0FF300FB0BDE8F08F5046E1
:1013B000FAE7E90701D10AF1010A064400200C907E
:1013C00054E60000CCCCCC0C2DE9F0478146164603
:1013D0008AB0354878440DC88DE80D00324878440D
:1013E000801C03AC0DC884E80D0041F69B30084416
:1013F000372190FBF1F290FBF1F5A5F1800501FB9F
:1014000012041B3C02D56442012000E00020DFF8FA
:1014100098A080460027FA44AAF1BE0A0EE0E00731
:101420000AD03246684607EB470101230AEB8101E7
:1014300000F000FE8DE8070064107F1C002CEED148
:10144000194F7F44AE3F19E0E80715D007EB0410B1
:101450000DF1180A90E80E008AE80E00C068F0420C
:1014600001D1981908903246012306A903A800F07B
:10147000E1FD03AB83E807006D10641C002DE3D190
:101480004FF0010332466946B8F1000F03A802D0BD
:1014900000F0A6FD01E000F0CDFDC9E90001C9F8AA
:1014A00008200AB0BDE8F087F0450000004870470A
:1014B000000300207546FFF7F9FFAE4605006946B8
:1014C000534620F00700854618B020B5FEF7A2FE6F
:1014D000BDE820404FF000064FF000074FF0000835
:1014E0004FF0000B21F00701AC46ACE8C009ACE8B6
:1014F000C009ACE8C009ACE8C0098D4670470000DF
:1015000010B5FFF711FD001D10BD00BFBD39000073
:1015100010B5FFF70DFD006810BD10B50446FFF7CC
:1015200007FD046010BD00002DE9FF4F1F464FF07E
:101530003C0987B04FF00042DDE9141001F10108C9
:10154000DDF858A002EA4050039000200590834641
:10155000054604460490B969461E08988847AAF1D2
:10156000010A0290BAF1000F3BDD02982E2815D037
:10157000102100F060FA00282EDB4FF0010B0599D6
:10158000014317D0B9F1000F0BDB4A46C11700F039
:101590003FFA05430C43A9F1040905E0012004903A
:1015A0000BE008B145F0010501200590049820B931
:1015B000361D02E0049800B1361FB969089808F199
:1015C00001088847BBF1000FAAF1010A0290C9D0B7
:1015D0000999C1F80080C5E70298702808D0502802
:1015E00006D0F96908988847BBF1000F14D04FE086
:1015F000002002900120BBF1000F049009D0B969CE
:10160000089808F101088847AAF10109B9F1000F0B
:1016100007DCF969089888476FF001000BB0BDE856
:10162000F08F2B2804D02D280CD14FF0FF300490E0
:10163000B969089808F101088847A9F10109B9F1C9
:10164000000FE6DD411CE4D00A2100F0F4F9002887
:10165000DFDB029908F1010801EB810100EB410099
:101660000290B969089888470A2100F0E4F9099ABC
:10167000A9F10109B9F1000FC2F8008001DD0028CD
:10168000E7DAF969089888470499029800FB01662F
:1016900055EA040004D004F04041090002D006E0FD
:1016A000039898E0A40044EA9574AD00B61E04F0D7
:1016B0000041080002D16D196441761E159810F0A2
:1016C000240F03D04FF00B095C4803E04FF02809CA
:1016D0006FF07D008246564507DAAAEB0601894481
:1016E000B9F1410F01DD4FF0410901200021A9F1BD
:1016F000010200F08DF9024628400B4621400843C4
:1017000001D0012100E00021501E029143F1FF3180
:1017100028402140084301D0012000E00020029928
:10172000834651EA0B014FD0002108464FF00000DC
:10173000039900F4400039B100EB80004FF4400100
:1017400000EBD07001EA60008015012802DD4FF047
:10175000FF3000E013D0401C36D0029860B3BBF1DC
:10176000000F0CD14A460120002100F051F9284019
:101770002140084301D0012000E00020E0B1012019
:101780004A46002100F044F9034640190A466141E7
:101790002D1A8C4111D3B9F1400F09DD159810F0C5
:1017A000240F02D0AAF1340603E0AAF1170600E0E4
:1017B000761C00254FF0004406E05B1E42F1FF322C
:1017C00020EA030521EA0204CAF10100B04206DA68
:1017D0001B49039808430190002000900EE0039AF3
:1017E000C4F3D321E80A0A43164940EA44500A43A5
:1017F0003146CDE90002684603F0D2F9159810F0A1
:10180000240F0BD01598C00715D13868DDE90012F8
:10181000031D3B600068C0E900120CE002A86946A5
:1018200003F058F91598C00705D13868029A011DD0
:101830003960006802604046F0E6000002FCFFFFED
:101840000000F07F0000F03F2DE9FF4F92461D465B
:1018500085B04FF00041DDE9124BDDE914727F1EC7
:1018600001EA4B50414940F0FF4940EA010800219C
:1018700022F020004928049102D04E2828D04CE0C4
:101880003BA0012607C88DE80700A9690698641CDB
:1018900088477F1E014606D41DF8060018B121F0C6
:1018A000200181420BD0E96906988847032E34D085
:1018B000082E32D06FF0010009B0BDE8F08F761C21
:1018C000032E01D0082EE0D1601CCAF80000DCE72E
:1018D000A9690698641C88477F1E2AD420F020003E
:1018E000412826D1A9690698641C88477F1E20D408
:1018F00020F020004E281CD1A9690698641C884756
:101900007F1E48F4002849F48009CAF8004001D439
:10191000282806D0E969069888475FEACB7012D07C
:1019200022E0A9690698641C88477F1E01D400281C
:1019300003DAE96906988847BCE72928F1D1641CD5
:10194000CAF80040E9E71BF0240F07D02868049983
:10195000031D2B600068C0E9001805E02868021D1F
:101960002A600068C0F800902046A5E70000F07FDC
:10197000494E46494E4954590000000010B50446EE
:10198000AFF300802046BDE81040FEF72EBC0000FB
:101990004FF0013C50F8042B51F8043B9A4221D1FE
:1019A000A2EB0C03934313EACC1317D150F8042B8A
:1019B00051F8043B9A4215D1A2EB0C03934313EA6E
:1019C000CC130BD150F8042B51F8043B9A4209D1A7
:1019D000A2EB0C03934313EACC13DBD04FF00000CF
:1019E000704700BFD01A01BAB1FA81F101F01801B5
:1019F00022FA01F0CB40C1F12001DBB2C0B2C01A23
:101A00002CFA01F3D11A914311EAC311E6D17047C0
:101A1000B2F120030AD5C2F1200301FA02F120FA43
:101A200003F300FA02F041EA0301704700FA03F100
:101A30004FF0000070473A2800D2303820F02002E2
:101A4000412A01D3A2F13700884201D34FF0FF3081
:101A50007047000001491820ABBEFEE726000200D7
:101A600070475FEA400C08BF91F0000F4FEA8C23EB
:101A70004FEAC12243EA51514FEA1C5018BF00F50A
:101A8000F0404FEA300018BF41F000415FEA6C5C63
:101A900000F02980BCF1FF3F08BF40F08040704754
:101AA000130C06BF12044FF0100C4FF0000C130E75
:101AB00004BF12020CF1080C130F04BF12010CF149
:101AC000040C930F04BF92000CF1020CD30F04BF5F
:101AD00052000CF1010C11464FF00002A0F11F0062
:101AE000A0EB0C00704711F0004F08BF704731F0B9
:101AF00000413FF4D5AF0B0C06BF09044FF0100CAA
:101B00004FF0000C0B0E04BF09020CF1080C0B0F78
:101B100004BF09010CF1040C8B0F04BF89000CF108
:101B2000020CCB0F04BF49000CF1010CCCF12003D7
:101B3000A0EB0C0022FA03F302FA0CF241EA0301D3
:101B400000F10100704720F07F4C80EA030023F091
:101B50007F47ACEB070303F57C5300F0004003F133
:101B6000FF032DE980494FEA154B09B44FEA1443AE
:101B700025EA0B4E24EA03480FF2042606EB13274E
:101B800049083E785FEA320203FB0667C7F50007A3
:101B900007FB06F64FEA54374FEAD64606F102062F
:101BA00007FB066CCCF1005C4FEA1C472CEA074CA3
:101BB00007FB06F40CFB06F504EB15464FEA9616F8
:101BC00034BF00204FF000404FEAD13706FB07FC3E
:101BD0004FEA1C4C0CFB0BF7D21B03FB0CF761EB21
:101BE00007010CFB0EF7B0EB074072EB17420CFB42
:101BF00008F734BFA2EB0742B2EB074261EB174193
:101C00004FEA0C444FEA910706FB07FC4FEA1C4CD5
:101C10000CFB0BF7B0EBC74072EB573203FB0CF732
:101C200034BFA2EBC742B2EBC74261EB57310CFBAA
:101C30000EF7B0EBC70072EB57720CFB08F734BF1E
:101C4000A2EBC702B2EBC70261EB5771039F4FEAE9
:101C5000816141EA921104EBCC044FEAD1374FEA9B
:101C6000826206FB07FC42EA90124FEA80604FEA6C
:101C70001C4C0CFB0BF7D21B03FB0CF761EB0701B1
:101C80000CFB0EF7B0EB074072EB17420CFB08F7AA
:101C900034BFA2EB0742B2EB074261EB17414FEAB8
:101CA0008C554FEA910704EB9C2406FB07FC4FEA96
:101CB0001C4C0CFB0BF7B0EBC74072EB573203FB2D
:101CC0000CF734BFA2EBC742B2EBC74261EB57310E
:101CD0000CFB0EF7B0EBC70072EB57720CFB08F76A
:101CE00034BFA2EBC702B2EBC70261EB577115EB31
:101CF0004C254FEA816141EA92114FEA82624FEA34
:101D0000D13742EA901206FB07FC44F100044FEA87
:101D100080604FEA1C4C0CFB0BF7D21B03FB0CF74B
:101D200061EB07010CFB0EF7B0EB074072EB1742BB
:101D30000CFB08F734BFA2EB0742B2EB074261EBA2
:101D4000174115EB1C154FEA813141EA92414FEAE8
:101D5000823242EA90424FEA80304FEA0C7644F1F8
:101D6000000448EA03434EEA0B484FF0000EB2EB82
:101D7000080C71EB030724BF624639464EEB0E0E8A
:101D80004FF0000B0018524149414BEB0B0BB2EBEB
:101D9000080C71EB03077BF1000B24BF6246394648
:101DA0004EEB0E0E4FF0000B0018524149414BEB29
:101DB0000B0BB2EB080C71EB03077BF1000B24BF9C
:101DC000624639464EEB0E0E51EA020718BF46F046
:101DD000010616EB0E7655F1000254F1000103D511
:101DE000BDE88901BDE80088BDE88901BDE800487B
:101DF000B619524141EB0101A3F101037047808004
:101E00007F7E7D7C7B7A7978777676757473727154
:101E100071706F6E6E6D6C6C6B6A6A69686867660C
:101E200066656464636362616160605F5F5E5E5D9E
:101E30005D5C5C5B5B5A5A59595858575756565512
:101E400055555454535352525251515050504F4F74
:101E50004F4E4E4D4D4D4C4C4C4B4B4B4A4A4A49C4
:101E60004949484848474747474646464545454407
:101E700044444443434343424242424141410000BF
:101E800046EA0646A3F570534FEA164646EA42561E
:101E90004FEAD22242EA415210B54FEAD121A3F1D2
:101EA000010300F02FF820F0004000F1020C00F0D8
:101EB000004701EB00501146BCF5006F40EA0700F7
:101EC00000D210BDBAF1000F0AD01CB503B44FF018
:101ED00004004FF004014FF000000FBCBDE81040BB
:101EE0004FF00001BBF1010FB9BF04484FF0FF31C3
:101EF0000348002140EA070010BD00BFFFFFEF7F4D
:101F00000000F07F002B9C4630D477002BD01CB50E
:101F10004FEA370703B44FF010004FF01001BAF149
:101F2000000F06D0BCF1000FDCBF40F0080040F00D
:101F300008014FF000000FBCBDE810400BF1010B91
:101F4000BBF1010F08BF5FEA170722BF12F10102C0
:101F500011F101014FF0004143F1000300F0004096
:101F600043EA00007047F9D35708D0E746EA06462F
:101F700013F1400F4FEA16461FDD13F1200FDFBFAC
:101F800016430A46002120335B42BED0C3F120072E
:101F900046EA064602FA07F74FEA164646EA0706F9
:101FA000C3F1200722FA03F201FA07F721FA03F13D
:101FB0004FF0000342EA0702A7E746EA020646EAB4
:101FC00006464FEA164646EA0106BCBF46EA064602
:101FD000360C4FF000034FF000024FF0000194E781
:101FE0002DE9804C9A46934670B491E8380007C8B2
:101FF00031EA400C48BF34EA430C03D5FFF7A3FD98
:10200000FFF780FFF0BCBDE8008C2DE9804C9A46BC
:10201000934670B491E8380007C831EA400C48BFD5
:1020200034EA430C03D5FFF78EFDFFF729FFF0BC20
:10203000BDE8008C2DE9804C9A46934670B491E837
:10204000380007C810F0804F08BF13F0804F03D14D
:1020500000F01AF8FFF756FFF0BCBDE8008C2DE940
:10206000804C9A46934670B491E8380007C810F047
:10207000804F08BF13F0804F03D100F005F8FFF741
:10208000FFFEF0BCBDE8008C20F07F4780EA030033
:1020900023F07F4C07EB0C03A3F57C5300F00040CA
:1020A000A3F1FE0392F0000F00F0B38095F0000F53
:1020B00000F077802DE901494FEA11404FEA1446BC
:1020C00021EA004800FB06FC24EA064708FB06F666
:1020D00007FB08F800FB07F718EB06484CEB164C1B
:1020E0004FEA124B18EB07484FEA15464CEB1740E6
:1020F00022EA0B4E0BFB06FC25EA06470EFB06F612
:1021000007FB0EFE0BFB07F71EEB064E4CEB164CC7
:102110004FF000061EEB074E4CEB174B18EB0B086D
:1021200040F1000018EB0E0B58EB000840F10000E6
:102130008F1A4FF000013CBFC943661B14BFB5EBBB
:10214000040C00213CBFC943F61B4FEA17444EEA7A
:102150008E0E27EA04454FEA1C4704FB07622CEA6F
:10216000074C05FB07F70CFB05F604FB0CFC16EB14
:10217000074642EB174216EB0C4642EB1C421BEBA8
:10218000060658EB0202414146EA9E0601D5BDE82B
:102190000189B619524141EB0101A3F10103BDE8E8
:1021A00001894FEA14454FEA114724EA054621EA1E
:1021B000074C05FB07F406FB07F70CFB06F105FBD4
:1021C0000CFC11EB074144EB17444FEA124711EBAB
:1021D0000C4144EB1C4422EA074C05FB07F206FBCA
:1021E00007F70CFB06F605FB0CFC16EB074642EB6B
:1021F000174216EB0C4642EB1C456A1854F10001DD
:1022000048BF7047B619524141EB0101A3F10103E8
:10221000704795F0000F37D04FEA11424FEA14474C
:1022200021EA024624EA074C02FB07F106FB07F706
:102230000CFB06F402FB0CFC14EB074441EB1741CA
:102240004FEA154714EB0C4441EB1C4125EA074CBF
:1022500002FB07F506FB07F70CFB06F602FB0CFC7E
:1022600016EB074645EB174516EB0C4645EB1C42B3
:10227000121951F1000148BF7047B619524141EBA4
:102280000101A3F1010370474FEA14454FEA1147DA
:1022900024EA054621EA074C05FB07F106FB07F790
:1022A0000CFB06F24FF0000605FB0CFC12EB07429C
:1022B00041EB174112EB0C4251EB1C4148BF7047F8
:1022C000921841EB0101A3F101037047FEE7000002
:1022D000014800F0DDB80000BC020020014800F019
:1022E000D7B800003401002030B590F840500124E8
:1022F000AC40C56B6C60046863604368102B036876
:1023000003D099600068C26030BD9A600068C16007
:1023100030BD704772B6FEE710B590F8211000226C
:10232000022905D00421816380F82020012010BDFE
:1023300001680B6823F00E030B6001680B6823F043
:1023400001030B6090F84030C46B012101FA03F3E4
:10235000636080F8211080F82020104610BD000036
:102360002DE9F05F90F821100024022903D0042108
:102370008163012485E001680A6822F00E020A6088
:1023800001680A6822F001020A603F4E3E4FB21512
:10239000DFF8F4C0DFF8F090DFF8ECA0DFF8E8B089
:1023A000DFF8E4E00168783F13011502ACF1640C3A
:1023B000A9F15009AAF13C0AABF1280BAEF1140EB9
:1023C0004FF48018B14227D9B9420ED0614512D0DE
:1023D00049451DD0514518D0594518D0714501D1F6
:1023E000424615E0294EB14201D1012210E0274EAC
:1023F0001436B14201D110220AE0244E2836B142EF
:1024000006D0224A3C32914201D11A4600E02A46C7
:102410001E49091F0A602BE0B94213D0614517D04D
:10242000494522D051451DD059451DD0714501D196
:1024300042461AE0B14202D14FF0807215E0134ECD
:10244000B14201D1012210E0104E1436B14201D147
:1024500010220AE00D4E2836B14206D00B4A3C321B
:10246000914201D11A4600E02A46074980394A6064
:10247000012180F82110002180F82010416B01B16A
:1024800088472046BDE8F09F8000024008040240D3
:102490002DE9F05FC16B0A6801680B68046C4FF0AE
:1024A000040808FA04F8844D844E854FDFF814C2FE
:1024B000DFF81492DFF814A2DFF814B2DFF814E2A8
:1024C00018EA020F65D05FEA437862D50A6892067F
:1024D00003D40A6822F004020A60DFF8F0814FF4A6
:1024E0008062016808F1140813011402414524D9DF
:1024F000A9420DD0B1420FD0B9421AD0614515D0D2
:10250000494515D0514501D1120312E0594501D179
:1025100004220EE0714501D140220AE06D4D1435D0
:10252000A94206D06B4A2832914201D11A4600E0F6
:1025300022466749091F0A6029E0A94213D0B14227
:1025400015D0B94220D061451BD049451BD051451B
:1025500002D14FF4800217E0414502D14FF0806272
:1025600012E0594501D104220EE0714501D140220B
:102570000AE0584D1435A94206D0564A28329142F5
:1025800001D11A4600E022464B4908394A60C16A27
:1025900071E04FF0020808FA04F818EA020F70D050
:1025A0005FEA83786DD50A68920606D40A6822F03D
:1025B0000A020A60012180F82110DFF810814FF42F
:1025C0000072016808F1140813011402414524D96E
:1025D000A9420DD0B1420FD0B9421AD0614515D0F1
:1025E000494515D0514501D1120312E0594501D199
:1025F00002220EE0714501D120220AE0354D14354A
:10260000A94206D0334A2832914201D11A4600E04D
:1026100022462F49091F0A6029E0A94213D0B1427E
:1026200015D0B94220D061451BD049451BD051453A
:1026300002D14FF4001217E0414502D14FF0007271
:1026400012E0594501D102220EE0714501D120224C
:102650000AE0204D1435A94206D01E4A2832914284
:1026600001D11A4600E02246134908394A60002188
:1026700080F82010816A00291CD0BDE8F05F08476F
:10268000FFE70825A540154214D01A0712D50A689D
:1026900022F00E020A6090F84020C36B012101FA7B
:1026A00002F25A60816380F82110002180F8201026
:1026B000016BE0E7BDE8F09F080002401C0002400B
:1026C0003000024044000240580002406C000240CA
:1026D000080402401C04024030B560B11A4B026885
:1026E00014219A4209D2194B1344B3FBF1F189002A
:1026F000016417490AE0012030BD134B5B421344CB
:10270000B3FBF1F1890001640F490839C16302216B
:1027100080F82110136843F6F0718B43F0E901143F
:102720002143D0E902452C432143046921434469F4
:10273000214384692143194311600021416301222F
:1027400042770177084630BD08040240F8FFFDBF1C
:102750000000024070B5044690F8200000250128D2
:102760000CD0012084F8200094F821600020012E74
:1027700006D084F820000225284670BD022070BDD6
:10278000022684F82160A0632068066826F001060E
:1027900006602046FFF7A8FDE06A0028206801686F
:1027A00002D041F00E0106E021F004010160206832
:1027B000016841F00A0101602068016841F00101EF
:1027C0000160D9E72DE9F84FDFF8C8910024A9F19D
:1027D000040B23460F2709F1040AABF1040ED1E0E4
:1027E0000125A54006EA0502AA4276D1DFF8A8C174
:1027F0004E68A6EB0C0866452BD00DDC032E34D0BA
:1028000005DC36B3012E19D0022E2FD11BE0112E7C
:1028100016D0122E2AD119E0B8F5881F19D006DC7F
:10282000B8F5803F15D0B8F5801F1FD111E0B8F57D
:10283000001F0ED0B8F5041F18D10AE0CB6815E0D0
:10284000CB681B1D12E0CB6808330FE0CB680C335C
:102850000CE08B682BB1012B4FF0080303D04561CE
:1028600004E0042302E0056100E00023FF2A01D810
:10287000064601E000F104064FEA840501D9A5F1FE
:102880002005D6F8008007FA05FC28EA0C0803FAB0
:1028900005F548EA0508C6F800804D68ED0070D5DA
:1028A0003E4DAE6946F00106AE61AD6924F0030607
:1028B00005F0010500953A4D06EB050CDCF80850D3
:1028C000A607360F07FA06F825EA0805DFF8D480D0
:1028D000404503D14FF0000825E052E0DFF8C88002
:1028E000404502D14FF001081DE0DFF8C0804045AF
:1028F00002D14FF0020816E0DFF8B480404502D163
:102900004FF003080FE0DFF8AC80404502D14FF0F4
:10291000040808E0DFF8A080404502D14FF0050828
:1029200001E04FF0060808FA06F848EA0508CCF876
:1029300008804D68D9F80060ED024D4601D5164378
:1029400000E096432E604D68DAF80060AD0255460F
:1029500001D5164300E096432E604D68DBF8006019
:10296000AD035D4601D5164300E096432E604D68E9
:10297000DEF80060ED03754601D5164300E096438E
:102980002E60641C0A681646E2407FF429AFBDE859
:10299000F88F0000080401400000111000100240F0
:1029A0000000014000080140000C014000100140FF
:1029B0000014014000180140001C01400AB10161EF
:1029C00070470904FBE70000014880687047000079
:1029D0000400002002488168027811448160704739
:1029E00004000020074810B5016841F010010160A3
:1029F000032000F075F80F2000F006F800F024F82E
:102A0000002010BD0020024070B50D4D04464FF46B
:102A10007A712878B1FBF0F00A490968B1FBF0F04F
:102A200000F0DCFA48B9102C07D200222146501ED3
:102A300000F036F800206C6070BD012070BD000011
:102A400004000020100000200C4808B5816941F006
:102A500001018161816901F001010091C16941F0C9
:102A60008051C161C06900F0805000900448416805
:102A700021F0E06141F00071416008BD00100240AA
:102A800000000140002809DB00F01F0201219140F5
:102A90004009800000F1E020C0F8001170470000FC
:102AA000F0B40E4B1B680C46C3F30223C3F10705B9
:102AB000042D00D90425191D072901D2002300E0A7
:102AC000DB1E012606FA05F1491E214099409E4071
:102AD000761E16403143F0BC01F0DDBF0CED00E086
:102AE000064900F0070208684FF6FF03184040EA65
:102AF0000220034A10430860704700000CED00E01C
:102B00000000FA052DE9F0470F46050061D0434E5D
:102B1000306800F00700B84209D2306820F00700A2
:102B200038433060306800F00700B84251D128685F
:102B30003B4C810712D5400703D5606840F4E06044
:102B400060602878000703D5606840F460506060DA
:102B50006068A96820F0F000084360602878C0072A
:102B600028D06868012810D02168022810D0890771
:102B700000292EDA616821F0030101436160FFF74B
:102B800023FF804641F288390DE021688903EFE791
:102B90008901EDE7FFF718FFA0EB0801494502D9CD
:102BA0000320BDE8F0876068696800F00C00B0EBB6
:102BB000810FEFD1306800F00700B8420BD93068C0
:102BC00020F0070038433060306800F00700B8425A
:102BD00001D00120E5E72878400705D56068E9685D
:102BE00020F4E060084360602878000706D560683C
:102BF000296920F4605040EAC100606000F038F8B4
:102C00006168084AC1F30311515CC8400649086075
:102C100006480068FFF7F8FE0020C2E700200240E7
:102C20000010024032590008100000200800002067
:102C30000448054900684968044AC1F30221515C0F
:102C4000C8407047100000200010024042590008A0
:102C50000448054900684968044AC1F3C221515C2F
:102C6000C840704710000020001002404259000880
:102C70000E4A51680E4801F00C03042B11D0082BAA
:102C80000FD10C48C1F38343C903C05C0AD5516816
:102C9000084AC1F34041921E515C054A5043B0FBC3
:102CA000F1F07047044948437047000000100240AB
:102CB00000127A002259000800093D002DE9F84F62
:102CC000040070D02078C04DC00749D06868C0F3B8
:102CD0008100012807D06868C0F38100022809D16B
:102CE0006868C00306D52868800339D56068002865
:102CF000E7D035E06068B0F5803F0BD010B1B0F59B
:102D0000A02F11D0286820F480302860286820F493
:102D1000802002E0286840F480302860606890B12C
:102D2000FFF752FE06460AE0286840F4802028603B
:102D3000F0E700BFFFF748FE801B642873D82868BF
:102D40008003F7D50CE0FFF73FFE064605E000BF25
:102D5000FFF73AFE801B6428F0D828688003F7D478
:102D600020789A4E80074FF001094FF0000839D5BE
:102D7000686810F00C0F07D06868C0F38100022863
:102D800009D16868C00306D42868800714D5206973
:102D9000012808D110E02069B0B1C6F80090FFF713
:102DA00013FE074605E00AE1FFF70EFEC01B0228EE
:102DB000C4D828688007F7D52868616920F0F80032
:102DC00040EAC10028600DE0C6F80080FFF7FCFD76
:102DD000074604E0FFF7F8FDC01B022823D8286847
:102DE0008007F7D4207800072CD57948A169D9B19C
:102DF000C0F80090FFF7E8FD074604E0FFF7E4FDA8
:102E0000C01B02280FD8686A8007F7D571484FF4B5
:102E1000FA510068B0FBF1F0009000BF0098411E2D
:102E20000091FAD20EE080E0C0F80080FFF7CCFD00
:102E3000074604E0FFF7C8FDC01B022875D8686A82
:102E40008007F7D42078400760D5E8690027C000E4
:102E500008D4E86940F08050E861E869012700F093
:102E6000805000905C480168C90513D4016883460E
:102E700041F480710160FFF7A7FD824606E000BFC4
:102E8000FFF7A2FDA0EB0A0064284ED8DBF8000093
:102E9000C005F5D5E06801280AD008B1052813D08F
:102EA000286A20F001002862286A20F0040002E06D
:102EB000286A40F001002862E06841F2883B98B13E
:102EC000FFF782FD82460BE0286A40F0040028628A
:102ED000EEE700BFFFF778FDA0EB0A0159455AD88D
:102EE000286A8007F6D50CE0FFF76EFD824605E004
:102EF000FFF76AFDA0EB0A0159454CD8286A800704
:102F0000F6D41FB1E86920F08050E861E06988B329
:102F10006968C1F38101022944D00228C6F86080A3
:102F200004D0FFF751FD044638E034E0FFF74CFDD4
:102F3000074604E0FFF748FDC01B02282BD828688D
:102F40008001F7D4206AB0F5803F05D16868A16898
:102F500020F4003008436860D4E908010843696838
:102F600021F4741108436860C6F86090FFF72CFDE7
:102F7000044606E025E000BFFFF726FD001B0228FF
:102F800009D828688001F7D51BE000BFFFF71CFDBA
:102F9000001B022802D90320BDE8F88F28688001B1
:102FA000F4D40EE00128F7D06868226A00F480317A
:102FB000914204D1616A00F47010884201D001206E
:102FC000EAE70020E8E7000000100240000042426B
:102FD00080044242100000200070004010B5401EE6
:102FE000B0F1807F01D3012010BD4FF0E02460617B
:102FF0000F21601701F04FFD0020A0610720206124
:10300000002010BD7047704770B590F83C20012A31
:103010002CD0012480F83C40022280F83D20036837
:103020005A689D6822F070060A6832435A60104B55
:1030300002689A420ED00F4B9A420BD0B2F1804FE9
:1030400008D00D4B9A4205D00C4B9A4202D00C4B43
:103050009A4204D1496825F080031943916080F8B1
:103060003D40002180F83C10084670BD022070BD34
:10307000002C0140003401400004004000080040E2
:10308000000C004010B5040003D094F83D0010B1CE
:1030900007E0012010BD002084F83C00204600F02D
:1030A0001FF8022084F83D00211D206801F0A6F9D8
:1030B000012084F8460084F83E0084F83F0084F83C
:1030C000400084F8410084F8420084F8430084F80A
:1030D000440084F8450084F83D00002010BD000045
:1030E00008B5114A01681148914208D1C16941F0FF
:1030F0000201C161C06900F00200009008BD0C4AE5
:103100009142FBD1C16941F00401C161C069002253
:1031100000F00400009011461E20FFF7C1FCBDE83E
:1031200008401E20FFF7AEBC000400400010024023
:103130000008004090F83D10012901D0012070479F
:10314000022180F83D100168CA6842F00102CA609D
:1031500000680E4988420ED00D4988420BD0B0F16C
:10316000804F08D00B49884205D00B49884202D0D5
:103170000A49884204D1816801F00701062903D079
:10318000016841F00101016000207047002C0140FE
:10319000003401400004004000080040000C0040E2
:1031A00070B5044690F83C000025012817D0012690
:1031B00084F83C60022084F83D002068826822F098
:1031C000770222F47F4282600868502838D00DDCF4
:1031D00020284FD005DC90B3102811D14AE00220FE
:1031E00070BD302846D040280AD13BE060282FD05F
:1031F00070280DD0B0F5805F03D0B0F5005F12D01D
:10320000012584F83D60002084F83C00284670BD0C
:10321000CB68D1E90121206801F04BF92068816871
:1032200041F0770109E0CB68D1E90121206801F084
:1032300040F92068816841F480418160E1E719E04C
:10324000CA684968206801F009FA5021206806E040
:10325000CA684968206801F012FA6021206801F00C
:1032600032F9CEE7CA684968206801F0F7F94021D1
:103270002068F4E7226801461046F0E72DE9F041A6
:103280000D46040003D094F83D0018B108E0012079
:10329000BDE8F081002084F83C00204600F040F8B2
:1032A000022084F83D002068816844F207029143BF
:1032B0008160211D206801F0A1F822689068916961
:1032C000166A2B68AF69034340F20330814341EA39
:1032D0000721A868EF6908434FF6FC418843E96875
:1032E00040EA0720014328692F6A000140EA0730BD
:1032F000084369686D6926F0220646EA05152943E8
:1033000093602268906154F8460B0162012004F832
:103310001F09E0752076E0762077A0750020B7E7DA
:1033200000B585B0002100910191029103910068E0
:10333000B0F1804F16D10C48C16941F00101C16163
:10334000C16901F001010491816941F004018161C9
:103350008069694600F0040004900320009003484F
:10336000FFF730FA05B000BD001002400008014030
:1033700070B590F83E60044690F83F5090F84230A7
:1033800090F84320022021B104290ED0012E1BD138
:1033900014E0012E18D1012B16D184F83E0084F8D8
:1033A000420001220021206820E0012D0CD1012AD9
:1033B0000AD184F83F0084F8430014E0012D03D1C2
:1033C000012B01D1012A01D0012070BD84F83E00FB
:1033D00084F83F0084F8420084F843000122002171
:1033E000206801F059F801220421206801F054F806
:1033F0002068016841F001010160002070BD704744
:103400002DE9F04104460068C66805694FF00007E1
:10341000A90713D5B10711D5F91E01610120207745
:10342000206880698007204602D0FFF7E8FF04E0AB
:1034300000F0A4F8204600F036F92777680716D583
:10344000700714D521686FF004000861022020770E
:103450002068806910F4407F204602D0FFF7CFFF3C
:1034600004E000F08BF8204600F01DF927772807CC
:1034700015D5300713D521686FF0080008610420C6
:1034800020772068C0698007204602D0FFF7B7FF89
:1034900004E000F073F8204600F005F92777E8060D
:1034A00016D5F00614D521686FF0100008610820C9
:1034B00020772068C06910F4407F204602D0FFF7D3
:1034C0009EFF04E000F05AF8204600F0ECF8277761
:1034D000E80708D0F00706D021686FF00100086106
:1034E000204600F079F9280608D5300606D521686F
:1034F0006FF0800008612046FFF784FD680608D55C
:10350000700606D521686FF040000861204600F083
:1035100079F9A8060AD5B00608D521686FF0200011
:1035200008612046BDE8F041FFF76DBDBDE8F081C0
:1035300000B585B0002100910191029103910068CE
:103540000B49884211D10B48816941F00401816126
:103550008069694600F00400049040200090022039
:10356000019003900448FFF72DF905B000BD00005D
:10357000000400400010024000080140704770B590
:10358000044690F83C0000260D4601280FD001208B
:1035900084F83C006AB1042A1DD0082A2FD00C2AD6
:1035A0003FD00126002084F83C00304670BD022048
:1035B00070BD206800F090FF2068816941F008012B
:1035C00081612068816921F004018161206881693D
:1035D0002A69114311E0206800F0AEFF206881697C
:1035E00041F4006181612068816921F48061816119
:1035F000206881692A6941EA02218161D2E7206855
:1036000000F0D0FF2068C16941F00801C161206865
:10361000C16921F00401C1612068C1692A691143AF
:1036200011E0206800F0F2FF2068C16941F40061F8
:10363000C1612068C16921F48061C1612068C169EC
:103640002A6941EA0221C161ACE710B5040003D048
:1036500094F83D0010B107E0012010BD002084F86F
:103660003C00204600F01EF8022084F83D00211D99
:10367000206800F0C3FE012084F8460084F83E0074
:1036800084F83F0084F8400084F8410084F8420048
:1036900084F8430084F8440084F8450084F83D0031
:1036A000002010BD7047704710B50446022249B192
:1036B00004290ED0082913D094F84100012816D00F
:1036C000012010BD94F83E000128F9D184F83E2075
:1036D0000FE094F83F000128F2D184F83F2008E081
:1036E00094F840000128EBD184F8402001E084F8F0
:1036F00041200122206800F0CFFE13492068134AC0
:10370000884201D0904203D1436C43F400434364A8
:10371000206888420DD090420BD0B0F1804F08D085
:103720000B49884205D00B49884202D00A49884299
:1037300004D1816801F00701062903D0016841F036
:1037400001010160002010BD002C01400034014047
:103750000004004000080040000C004030B5044662
:103760000D460068002200F097FE194B41F211113E
:1037700020688A10984202D0164B984209D1036AF9
:103780000B4206D1036A134203D1436C23F4004376
:1037900043642068036A0B4206D1016A114203D1D7
:1037A000016821F00101016001203DB1042D08D024
:1037B000082D09D084F84100002030BD84F83E0077
:1037C000FAE784F83F00F7E784F84000F4E70000E8
:1037D000002C014000340140084910B588420BD14B
:1037E00001F5C47000F072FC054800F003FDBDE86F
:1037F0001040034800F0DEBB10BD0000A400002014
:103800002C020020704738B5044690F8420020286A
:1038100001D0022038BD51B14AB1012020630020FF
:103820006063204601F0D4F8216B012901D001200A
:1038300038BD21680A684968009121680C3151E857
:10384000002F42F0100241E80023002BF5D138BDD3
:1038500038B5424988427CD1002000903F486A46F2
:103860003FA18C30FCF7C0FD3F4C012838D06A46A0
:103870003EA1A4F1B400FCF7B7FD012835D06A469B
:103880003CA1A4F1B400FCF7AFFD012832D06A4698
:103890003AA1A4F1B400FCF7A7FD01282FD06A4695
:1038A00039A1A4F1B400FCF79FFD01282CD06A4691
:1038B00038A1A4F1B400FCF797FD012829D06A468D
:1038C00037A1A4F1B400FCF78FFD012826D06A4689
:1038D00036A1A4F1B400FCF787FD012825D02DE026
:1038E0000098072233A1E06425E00098072233A165
:1038F000206520E00098072232A160651BE0009857
:103900000B2232A1606716E000980B2232A1A0675B
:1039100011E000980B2233A1E0670CE012480099F7
:1039200000F01CFD0A2232A105E00F48009900F0CA
:1039300013FD0D2231A1094800F042FA0749322255
:103940008C310648FFF75FFF044848300068016883
:1039500000E002E021F00401016038BDEC0000202D
:103960006B703D25660A00002C0200206B693D2526
:10397000660A00006B643D25660A0000706F735F85
:103980006B703D25660A0000706F735F6B693D25A3
:10399000660A0000706F735F6B643D25660A000065
:1039A00073706565643D25660A000000706F733DA5
:1039B00025660A006B702073657400006B692073C4
:1039C000657400006B64207365740000706F732071
:1039D0006B70207365740000706F73206B692073C7
:1039E00065740000706F73206B6420736574000051
:1039F000737065656420736574000000706F73698F
:103A000074696F6E207365740000000070470000D9
:103A1000F8B5016804460868CA684B6910F00F0FD2
:103A20004FF0000559D003F0010602F490773743B8
:103A300065D0C10705D0D10503D5616C41F0010106
:103A40006164410705D5D90703D0616C41F00201DB
:103A50006164810705D5D90703D0616C41F0040189
:103A60006164010707D502F02001314303D0616C86
:103A700041F008016164616C00293AD0800604D5E8
:103A8000900602D5204600F0E6FE20684069616C91
:103A9000C0F38010090700D460B3204600F0A6FEF2
:103AA00020684069400621D52068143050E8001F86
:103AB00021F0400140E80012002AF5D1E06BA8B1E6
:103AC0006D494163E06BFEF74BFC002811D0E06BC1
:103AD000416B01B0BDE8F040084783060FD593065F
:103AE0000DD52046BDE8F84000F0B5BE2046FFF7F2
:103AF0008DFFF8BD2046FFF789FF6564F8BD266B92
:103B00002023012E7CD1C6067AD5D60678D5086842
:103B10004868009048694FF00206400640D5E16BC6
:103B2000086840680004000CE8D0A28D8242E5D904
:103B3000E085886920282DD020680C3050E8001FCF
:103B400021F4807140E80012002AF5D12068143079
:103B500050E8001F21F0010140E80012002AF5D1D1
:103B60002068143050E8001F21F0400140E80012A6
:103B7000002AF5D184F84230256320680C3050E8E3
:103B8000001F21F0100140E80012002AF5D1E06B7F
:103B9000FEF7C2FB6663A08DE18D401A81B22AE078
:103BA000A08DE18D401A81B2E08D0028A6D00029B9
:103BB000A4D022680C3252E8000F20F4907042E842
:103BC0000007002FF5D12068143050E8002F22F0B4
:103BD000010240E80027002FF5D184F84230256328
:103BE00020680C3050E8002F22F0100240E800233B
:103BF000002BF5D166632046FFF72AFEF8BDFFE7EC
:103C000005062BD5150629D594F841002128F5D1B4
:103C1000A068B0F5805F01D12069B0B1206A411C75
:103C20002162216800784860E08C401E0004000C8E
:103C3000E084E3D12068C16821F08001C160206880
:103C4000C16841F04001C160D8E7206A0088C0F334
:103C500008004860206A801C2062E5E74006CDD558
:103C60005006CBD5CA68204622F04002CA6084F8CC
:103C7000413000F0E1F8C1E7A346000870B5040048
:103C800004D094F84100002510B106E0012070BD79
:103C900084F84050204600F023F8242084F84100A6
:103CA0002068C16821F40051C160204600F034FE54
:103CB0002068016921F4904101612068416921F087
:103CC0002A0141612068C16841F40051C160656406
:103CD000202084F8410084F842006563002070BD14
:103CE000F0B585B000240646009401940294039434
:103CF00000682C49884252D12B48816941F48041A7
:103D00008161816901F480410491816941F004017C
:103D100081618069254D00F0040004904FF400702B
:103D20000090022001900320039069462846FEF788
:103D300049FD2815CDE90004694628460294FEF79E
:103D400041FD1C4D1A48802701C5102091C5194816
:103D500045F810496C61AC61EC61FEF7BDFC08B13F
:103D6000FEF7D8FAB5636E621148134D1430C5E9F9
:103D70000004C5E902472C616C61AC612846EC6126
:103D8000FEF7AAFC08B1FEF7C5FAF563002211465A
:103D900025206E62FEF784FE2520FEF773FE05B037
:103DA000F0BD000000380140001002400008014052
:103DB00044000240BC0200203401002070477047DC
:103DC00070B5044690F84100202801D0022070BD53
:103DD00049B342B32162A284E284002060642123BB
:103DE00084F84130A56B114BAB62A56B104BEB62B5
:103DF000A56B104B2B63A36B5863256813462A1DD4
:103E0000A06BFEF7A7FC21686FF0400008602068F7
:103E1000143050E8001F41F0800140E80012002AF1
:103E2000F5D1002070BD012070BD0000A147000841
:103E3000E3470008B346000870477047FEE70000FC
:103E400010B58CB024216846FCF70BFB0024164803
:103E500009944FF080410A94C0E900144FF6FF71B5
:103E6000C0E90241046184610320CDE9000401201E
:103E70000F210222CDE90204CDE904120690CDE91A
:103E8000074169460848FFF7F9F908B172B6FEE73D
:103E9000099409A904480A94FFF7B6F8002801D04C
:103EA00072B6FEE70CB010BD1400002010B58EB045
:103EB00000240794089409940A940B941C216846E2
:103EC0000C94FCF7CEFA1F481D4901604721C0E958
:103ED000011440F2E731C0E903148461FFF7D2F81E
:103EE00008B172B6FEE74FF48050079007A9154855
:103EF000FFF756F908B172B6FEE71248FFF7A5FBC7
:103F000008B172B6FEE70B940BA90E480C94FFF7AC
:103F10007BF808B172B6FEE7602000904FF4FA70AB
:103F2000CDE901040022694606480494FFF727FB07
:103F300008B172B6FEE70348FFF7FAFA0EB010BDFB
:103F4000000400405C00002010B586B00024174833
:103F5000009401940294039404941349059401601D
:103F600041F61F41C0E901144FF6FF71C0E9031487
:103F70008461FFF787F808B172B6FEE74FF480500E
:103F8000009069460948FFF70BF908B172B6FEE7E1
:103F9000049404A905480594FFF736F8002801D0D9
:103FA00072B6FEE706B010BD00080040A400002075
:103FB000FEE7FEE72DE9F0410446C16B806C01F09D
:103FC000B7FB0146A065206E01F008F92066616E1E
:103FD00001F07CFB01D8606E2066606E216E80F07F
:103FE000004001F073FB03D8606E80F00040206653
:103FF000D4E91651284601F09BFB616D01F09AFA55
:104000000646216E206D01F095FA07462946E06CC0
:1040100001F090FA394601F0E1F8314601F0DEF89E
:1040200001F00CFA00B24FF47A71A4F868008842EB
:1040300001DBA4F86810B4F968102048814201DC63
:10404000A4F86800E5651E49A06C884224D21D4989
:10405000884221DAE06B10F17F5F1DD81A4988424F
:104060001ADC00252566A565E565A4F86850218C55
:104070002A46E069FEF7A2FCA068A0B1042816D089
:1040800008286068006816D0C0F84050D4E90101E3
:10409000FFF764FB84F84650B4F968102046BDE889
:1040A000F04100F0EDB8606800684563EEE76068D5
:1040B00000688563EAE7C563E8E7000018FCFFFFD6
:1040C0000AD723BC0AD7233C000040402DE9F04723
:1040D000044654F8440B0068416A24F83C19208FC8
:1040E000081A05B265872187A08D01F0DBF9164912
:1040F00001F0E2F80646284601F0BCF98146134972
:1041000001F018FAE769394601F0D6F8D4F82080B2
:10411000414601F0D1F8656A294601F0CDF83146F3
:1041200001F0CAF860634846394601F0C5F84146D7
:1041300001F0C2F8294601F0BFF8616E01F04EF8B7
:104140006066BDE8F087000000007A44000070421D
:104150002DE9F05F1D460E460446DDE90D10DDE950
:104160000B3ADDE91497DDE912EBDDF828C0DDF844
:104170003C80E4E80262C4E900C3A4F808A0E1605E
:104180002082C4F81480109820831198C4E9070E87
:10419000C4E909B9A785FEF717FC20630020A087B2
:1041A00060873168496A2187606384F83E00169908
:1041B00061641799A1641899E1641999E1656066D1
:1041C0001A99E1661B9921671C9961671D99206402
:1041D0006065E167A065296807EB87004000C86259
:1041E000E8603C213046FFF7C3F82846BDE8F05FA1
:1041F000FEF7A0BF2DE9F0410446F4E91B1001F0E1
:1042000097FA0146E061606900F0E8FF6061A1692A
:104210006C3C01F05BFA03D8D4F88400C4F8800049
:10422000D4F88400D4F8801080F0004001F04EFAF9
:1042300005D8D4F8840080F00040C4F88000D4E9A8
:1042400022512846743401F073FAA16801F072F922
:104250000646E168606801F06DF907462946206866
:1042600001F068F9394600F0B9FF314600F0B6FFB9
:104270000146A4F17400A561BDE8F04100F06EB8FC
:1042800070B504464FF47A700D46814201DB054655
:1042900035E03048854201DC054601E0002D2DDA8D
:1042A000218C4FF00102E069FEF788FB218A012290
:1042B000E068FEF783FB218B00226069FEF77EFB3E
:1042C000A06878B1042812D061680828C5F1000000
:1042D000096811D0C1F84000D4E90101FFF7E4F901
:1042E00002202AE06168684209684863F4E761686F
:1042F000684209688863EFE7C863EDE71FDD218C3A
:104300000122E069FEF75AFB218A0022E068FEF7ED
:1043100055FB218B01226069FEF750FBA06878B144
:10432000042811D008286068006811D0C0F84050F7
:10433000D4E90101FFF7B8F9012084F8460070BD07
:10434000606800684563F3E7606800688563EFE7CD
:10435000C563EDE718FCFFFF0167704770B50D46B8
:104360000446016B284601F0B1F9206B08D980F0B2
:104370000040294601F0AAF904D8206B80F00040E3
:10438000A06470BDA56470BD70477047FEF722BB86
:1043900030B58FB028216846FCF763F814210AA8CD
:1043A000FCF75FF801210804CDE900100024029415
:1043B00002250491CDE907504FF4E01009906846BA
:1043C000FEF77CFC08B172B6FEE70F20CDE90A05C6
:1043D0004FF48060CDE90C4002210AA80E94FEF74C
:1043E00091FB002801D072B6FEE70FB030BD7047D8
:1043F0000148FFF705B80000A4000020F0B50268EE
:10440000204C214D214E224F224B4FF0804CA04298
:1044100009D0984207D0604505D0A84203D0B042E9
:1044200001D0B84204D122F0700E4A6842EA0E026E
:10443000A04209D0984207D0604505D0A84203D0D9
:10444000B04201D0B84203D122F44075CA682A4371
:104450004D6922F080022A4302608A68C2620A68BB
:104460008262A04201D0984201D109690163012111
:1044700041610169C90703D0016921F001010161AE
:10448000F0BD0000002C0140000400400008004086
:10449000000C00400034014010B501F01F03012161
:1044A000046A99408C430462016A9A401143016294
:1044B00010BD10B5846842EA032224F47F440A4305
:1044C0002243826010BD826822F070020A4342F0EB
:1044D0000701816070470000F0B5036A026A22F0AC
:1044E0000102026242688469124E24F073050C686E
:1044F0002C4323F002058B682B430D4DA84201D0BD
:10450000B04205D123F00807CB683B4323F00403F6
:10451000A84201D0B04205D14D6922F44072154342
:104520008A692A4342608461496841630362F0BD3D
:10453000002C014000340140F0B5026A036A23F008
:1045400010030362436884690D6824F4E64444EA76
:1045500005248D6822F0200242EA05120F4D104E0C
:10456000A84201D0B04206D1CF6822F0800242EAD0
:10457000071222F04002A84201D0B04207D14D6993
:1045800023F4406343EA85038D6943EA850343606E
:104590008461496881630262F0BD0000002C014023
:1045A00000340140F0B5026A036A23F480730362A9
:1045B0004368C46922F4007224F073050C68124E3B
:1045C0002C438D6842EA05220E4DA84201D0B0422C
:1045D00006D1CF6822F4006242EA072222F4806208
:1045E000A84201D0B04207D14D6923F4405343EAB9
:1045F00005138D6943EA05134360C4614968C163CB
:104600000262F0BD002C01400034014030B5046A64
:10461000026A22F4805202624268C3690D6823F480
:10462000E64343EA05238D6824F4005444EA053444
:10463000084DA84202D0084DA84204D14D6922F489
:10464000804242EA85124260C361496801640462A3
:1046500030BD0000002C01400034014010B5036A59
:10466000046A24F001040462846924F0F00444EA3A
:10467000021423F00A020A438461026210BD10B5DD
:10468000036A046A24F010040462846923F0A0031E
:1046900024F4704444EA023243EA01118261016267
:1046A00010BD10B5406A0021C185C184FFF7AEF985
:1046B00010BD70B5446A2068406994F84110C0F399
:1046C000C0100025212904D118B1E584204600F04E
:1046D000B4F82068406994F84210C0F38010222991
:1046E00004D118B1E585204600F080F8606C40F0F8
:1046F000100060642046FFF789F970BD10B50146CF
:10470000406A096809684FF0000289062ED4C28504
:1047100001680C3151E8003F23F4807341E8003414
:10472000002CF5D10168143151E8003F23F001035A
:1047300041E80034002CF5D10168143151E8003F04
:1047400023F0400341E80034002CF5D1202180F80B
:104750004210016B012909D101680C3151E8003F79
:1047600023F0100341E80034002CF5D14263016BC3
:10477000012902D0FFF722FB10BD818DFFF768F8F9
:1047800010BD10B5406A01214163016B012902D0BF
:10479000FFF715FB10BD818D4908FFF759F810BDD3
:1047A00010B50146406A09680968890616D40021D7
:1047B000C1840168143151E8002F22F0800241E8E1
:1047C0000023002BF5D101680C3151E8002F42F095
:1047D000400241E80023002BF5D110BDFFF72CFB70
:1047E00010BD10B5406AFFF728FB10BD01680C3101
:1047F00051E8002F22F4907241E80023002BF5D1FC
:104800000168143151E8002F22F0010241E8002331
:10481000002BF5D1016B012909D101680C3151E858
:10482000002F22F0100241E80023002BF5D12021B7
:1048300080F8421000210163704701680C3151E893
:10484000002F22F0C00241E80023002BF5D12021E7
:1048500080F84110704708B590F84210222901D025
:10486000022008BD82684FF480539A4201D1016949
:1048700021B1816A9A421BD04AB10AE00268816A7A
:104880005268C2F308020A80816A891C08E0026942
:1048900072B10268526802F07F020A70816A491C94
:1048A0008162C18D491E0904090CC18503D01BE03A
:1048B00002685268F1E70168CA6822F02002CA6003
:1048C0000168CA6822F48072CA6001684A6922F0ED
:1048D00001024A61202180F8421000214163026BED
:1048E000012A03D0FFF76AFA002008BD01630168BE
:1048F0000C3151E8002F22F0100241E80023002B78
:10490000F5D101680A68D20602D50A6849680091A3
:10491000818DFEF79DFFE7E770B5044600680169E9
:10492000E26821F44051114301612169A068084304
:10493000616908432168CA6841F20C639A430243E3
:10494000CA6020684169A26921F440711143416144
:104950001E492068884202D1FEF77AF901E0FEF78D
:1049600067F900EBC00101EB001260686421800070
:10497000B2FBF0F3B3FBF1F36FF018067343B2FB35
:10498000F0F5B2FBF0F605EB8305322303EB0515DA
:10499000B5FBF1F5B6FBF1F605F0F00505EB0615F4
:1049A000B2FBF0F6B2FBF0F0B0FBF1F06FF01802E2
:1049B000504306EB800003EB0010B0FBF1F02168E0
:1049C00000F00F002844886070BD000000380140EE
:1049D00038B5816204468285002013466064222235
:1049E00084F84220E56B1B4AAA62E56B1A4AEA6228
:1049F000E56B1A4A2A63E26B50630A462168E06B52
:104A0000091DFDF7A7FE2068016840680090206935
:104A100048B120680C3050E8001F41F4807140E834
:104A20000012002AF5D12068143050E8001F41F030
:104A3000010140E80012002AF5D12068143050E846
:104A4000001F41F0400140E80012002AF5D100208B
:104A500038BD0000FD46000883470008B346000843
:104A60000148FEF7D5BF0000EC000020FEE749003A
:104A700050EAC12018BF04204A0D18BF40F00100C1
:104A800040F2FF72B2EB515F08BF40F00200012814
:104A900008BF052070470907090E002804DB00F154
:104AA000E02080F80014704700F00F0000F1E020D3
:104AB00080F8141D704740F2013200204FF0E041B1
:104AC00000F0E2BE024A0020110700F0DDBE000047
:104AD00001FDFFFF10B50446D1E9000100F002F826
:104AE000206010BDF8B504460D466A4600F06AF82D
:104AF00000987E30009000281EDC002213462046DD
:104B0000294600F03DFA17D0002140F608004FF08A
:104B1000000006462046294600F0ECF9044640F61F
:104B2000080006EA00014FF0000034F0004004BF26
:104B30000220FCF7F2FC29E00098FF2828DB002186
:104B400008464FF0000000F44006002213462046BD
:104B5000294600F0E1FA8CBF002501250220FCF770
:104B6000DCFC4FF0FF4446B1002D0CBF4FF40000B9
:104B70004FF48000B04218BF084C042108464FF0A3
:104B80000000002D04BF84F00040F8BD2046F8BDB1
:104B900020462946BDE8F84000F0ACB9FFFF7F7F12
:104BA00010B504460A46D4E90003194600F036F869
:104BB000C4E9000110BD30380A2801D20120704735
:104BC0000020704710B5144600222260114A21F0DF
:104BD00000439342A8BF10BD53EA000208BF10BDB6
:104BE000B3F5801FA8BF226807DA362200F04CFE1A
:104BF0006FF0350221F000432260DFF81CC06FF334
:104C00001E510CEB23531A4441F0FF5141F0005167
:104C1000226010BD0000F07F02FCFFFF2DE9F04193
:104C200006460C4640F2FF75174635EA14502BD065
:104C300000221346304600F0A3F925D03A4630460C
:104C4000214600F021FE06460C4635EA145010D0ED
:104C500000221346304600F093F915D10220FCF7EC
:104C60005CFCFFF72FFF0A46214662F31E01BDE8F8
:104C7000F0810220FCF751FCFFF71DFF0A46214698
:104C800062F31E01BDE8F08130462146BDE8F081A7
:104C900094B0FDF7A7FEFFF77BFB0024674D00945F
:104CA000019402940394A86940F02000A861A869C7
:104CB00000F020000490A86940F00400A861A869F1
:104CC0005F4E00F004004FF4D07704900022394684
:104CD0003046FDF773FE01200097CDE90104032063
:104CE000039069463046FDF76DFD686940F00100AC
:104CF00068616869002200F00100009011460E20F2
:104D0000FDF7CEFE0E20FDF7BDFE002211460F205E
:104D1000FDF7C6FE0F20FDF7B5FEDFF82CB14949BF
:104D20005846CBF800104FF4E131C0E901140C21D2
:104D3000CBF80C40C0E90441CBF81840CBF81C403C
:104D4000FEF79CFF08B172B6FEE7FFF779F8FFF7B0
:104D5000ADF8FFF7F9F83C4932228C313A48FEF7BA
:104D600052FD394848300068016821F004010160B3
:104D70003749CDE910144FF07E5134480D91CDE9FB
:104D80001240344ACDE90E200C9134480DF1200C2C
:104D90003223314A4FF081418CE80F002021304806
:104DA000CA000094CDE90610CDE904268020264BE8
:104DB000CDE90160483BA3F14802A2F1480101F5A9
:104DC00006700396FFF7C4F9264C00BFFDF7FCFD03
:104DD000254D2968401AA18E8842F7D39BF84100DF
:104DE0002028F3D1FDF7F0FD2860206F00F0CAF90C
:104DF00081468A46E06E00F0C5F907468846A06CF9
:104E000000F0C0F905460E46E06B00F0BBF9024623
:104E10000B468DE8EC071348B4F9682013A18238DB
:104E2000FBF70AFA0F488238FBF7FCFA0D4982B209
:104E300082390548FEF7C4FFC8E7000000100240B1
:104E40000008014000380140EC00002000007A44D6
:104E50000000A041CDCCCC3D00007A4300003041A1
:104E60000000F0412C0200200000002070776D2C23
:104E70007370642C74677370642C706F732C746718
:104E8000706F733A25642C252E32662C252E3266DF
:104E90002C252E32662C252E32660A0010B50029EC
:104EA0000AD00878002807D005487844FCF770FD40
:104EB000002801D0002010BD0248784410BD000039
:104EC000660B00005E0B000010B500290AD00878C0
:104ED000002807D005487844FCF75AFD002801D087
:104EE000002010BD0248784410BD0000560B0000A1
:104EF0004E0B000021F00042A2F16052B2F5801F7B
:104F000001F0004328BFD2F17F6C0BD95FEA001C8F
:104F100043EAC20242EB507018BF704728BF20F02E
:104F200001007047B2F5801FBCBF184670474FEABA
:104F3000410C1CF5001F02D2084600F0C2BB70B540
:104F400000F096F800000089FFF7F6BF4FF0004030
:104F5000A0F580007047000002494FF0000000F00B
:104F600061BC00BF0000F87F491058BFC1F140414B
:104F70005B1058BFC3F140438B42EFF30080704792
:104F800051EA030C17D41CF5801F58BFBCF5801FD5
:104F900000F10680994218BF704708BF90427047E1
:104FA00007D711F5801F58BF13F5801F19D49942F8
:104FB0007047894270471CF5801F08D5BCF5801FDB
:104FC000F7D58B4218BF704708BF824270474FF435
:104FD000001C1CEB410F38BF1CEB430F01D28B426E
:104FE000704770B500F044F8922449004FF000512A
:104FF0004FF08053FFF7B8BF51EA030C17D41CF5EC
:10500000801F58BFBCF5801F00F10680994218BF71
:10501000704708BF9042704707D711F5801F58BFEF
:1050200013F5801F19D499427047894270471CF5C7
:10503000801F08D5BCF5801FF7D58B4218BF70477D
:1050400008BF824270474FF4001C1CEB410F38BF71
:105050001CEB430F01D28B42704770B500F008F88B
:10506000922449004FF000514FF08053FFF77CBF6E
:105070000EF1020E2EF0030E5EF8046B364205D4DC
:10508000012A43EB030515F5001F12D8012841EB57
:10509000010C1CF5001F0CD80ED14FEAD17C15F580
:1050A000001F0CEB4C0C0CF1020C08BF4CEBD37C3A
:1050B00004E04FF0080C01E04FEAD37C0CEB4C0508
:1050C00026FA05F606F00706B6F1040C06D20EEB3A
:1050D000860CBDE870404CF0010C6047DFE80CF036
:1050E000090B02024FF000414FF00000A1F5002132
:1050F00070BD19461046012851EB010418BFD4F5C4
:10510000001484BF002001F0004170BD0808A0F524
:1051100000114FEA3101704753EA010C17D41CF516
:10512000801F58BFBCF5801F00F106808B4218BF5E
:10513000704708BF8242704707D713F5801F58BFDA
:1051400011F5801F19D48B4270479B4270471CF5A4
:10515000801F08D5BCF5801FF7D5994218BF70474E
:1051600008BF904270474FF4001C1CEB430F38BF40
:105170001CEB410F01D2994270470FB40CBC03BC29
:10518000FFF76BBF43004FEAD30C4FEA3C0C4340A0
:105190001FBF40070CF1605113F0FE4F70471CF029
:1051A000006F03D100200CF0004170470CF0004369
:1051B00043EA507010B540EACC0000F03CFA00BF62
:1051C000000000924FEA0001FFF7A0BF4FF000413E
:1051D0004FF00000A1F500217047000090EA010F98
:1051E00048BF81F0004100F1AA82421A3CBF801AF8
:1051F00089184FEAD0524FF07F4C1CEA410FA2EBC6
:10520000D15318BF9CEA026F00F03B804FF0004C76
:105210004CEA00204CEA012121FA03FC10EB0C0CB3
:105220001ED202F1FF325FEA1C2040EBC25038BFB1
:1052300070471CF07F0F4FEA400C18BFBCF17F4F46
:1052400038BF7047C3F12003994008BF20F0010028
:10525000BCF17F4F38BF7047A0F1C04000F031BAB9
:105260004FEA3C00000A40EBC25028BF1CF0FF0F81
:105270004FEA400CE6D018BFBCF17F4F38BF7047F3
:10528000EAE79CEA026F05D010EA5C0F08BF00F065
:105290000040704710B500F0CEF900BF64FBBE3E81
:1052A000401058BFC0F14040491058BFC1F14041C3
:1052B0008142EFF3008070474FF47F0C1CEAD0125C
:1052C0001EBF1CEAD11392EA0C0F93EA0C0F00F0F8
:1052D000858090EA010F48BF42F4807240F4000CD0
:1052E00041F400002CF07F4120F07F4000B5814266
:1052F000A2EB03020FF2081CACEB504EC0F1000011
:105300009EF800E04FEA4E0E00FB0EFC38BF49004D
:105310004FEA2C1C02F5FA020CFB0EF34FEACE1EEC
:105320004FEA112C4FEAC1210EEB635E42EB2242A1
:105330000EFB0CFC4FEA1C5300FB03114FEA112C2F
:105340004FEA01310EFB0CFC4FEADC4C00FB0C1168
:10535000C14228BF09184CEB03335DF804EB10EB96
:10536000410143EBC250B2F57C0F38BF704729D5DD
:1053700012F0F00F1CBF00F1C04000F00040704779
:10538000008182838485868788898B8C8D8E8F911E
:105390009293959697999A9C9D9FA0A2A3A5A7A842
:1053A000AAACAEB0B2B3B5B7B9BCBEC0C2C5C7C96E
:1053B000CCCED1D4D7D9DCDFE2E6E9ECF0F3F7FAD2
:1053C000FE0000004FEA400C0CF1807CBCF17E4FE7
:1053D00028BF7047B0F1C04000F073B990EA010FE8
:1053E0000CEAD11348BF42F48072624538BF63456E
:1053F00007D213F47F0F16D080EA010000F00040BE
:10540000704710B500F017F9097EFC3E00F005B8B2
:1054100080EA010000F00040704780EA010000F0DF
:10542000004000F04EB912F47F0F04BF02487047ED
:1054300080EA010000F045B90000C07F41000B0E7A
:10544000D3F19E0208D950F400034FEA032323FA54
:1054500002F048BF4042704710B500F0ECF800BFC2
:1054600049922480002070476FF0004282EA2000B9
:105470007047000010F0004148BF4042B0FA80F38E
:1054800010FA03F2C3F19D030BD051EAC35101EBB3
:105490001220530638BF704700F1010008BF20F00A
:1054A00001007047B0FA80F310FA03F2C3F19D03D4
:1054B0000AD0D90501EB1220530638BF704700F11E
:1054C000010008BF20F001007047000050EA010C05
:1054D00000F113801CF5000F58BFBCF5000F01D47C
:1054E0008842704707D710F5000F58BF11F5000F1D
:1054F00015D488427047894270471CF5000F04D5C7
:10550000BCF5000FF7D5814270474FF0807C1CEB53
:10551000400F38BF1CEB410F01D28142704710B5DC
:1055200000F089F8922449004FF000504FF080516C
:10553000FFF7B6BE4FF47F0C1CEAD0121EBF1CEA68
:10554000D11392EA0C0F93EA0C0F00F0478090EA17
:10555000010F48BF42F480724FF0004C4CEA00202B
:105560004CEA012102EB0302A0FB0113A2F50002A9
:10557000002918BF43F001035B0028BF4FEA330343
:1055800042EB22425FEA132C4CEBC2502EBFBCEB25
:10559000436FB2F57C0F70474FEA036CBCF1004FCC
:1055A00008BF20F00100B2F57C0F38BF70470BD563
:1055B00082F0FF0212F5803FC8BF704700F1C04083
:1055C000D8BF00F00040704700F5000C5FEA4C0CBB
:1055D00048BF7047B0F1C04000F073B890EA010FC7
:1055E0000CEAD11348BF42F48072624538BF63456C
:1055F00004D280EA010000F00040704710B500F0CE
:105600001AF800BF8900013E00F007B800F009B8A1
:105610005FEA410C5FEA1C6C08D080EA010000F0F0
:1056200050B85FEA400C5FEA1C6CF6D14FF00040C6
:10563000A0F5800070470EF1020E2EF0030E5EF80A
:10564000044B244204D44FEA4102B2F17F4F11D8F7
:105650004FEA4003B3F17F4F0CD80ED14FEAD07C14
:10566000B2F17F4F0CEB4C0C0CF1020C08BF4CEB71
:10567000D17C04E04FF0080C01E04FEAD17C0CEB48
:105680004C0324FA03F404F00704B4F1040C06D22A
:105690000EEB840CBDE810404CF0010C6047DFE8D5
:1056A0000CF0070802024FF00040A0F5800010BD8A
:1056B0000846420018BFD2F1807288BF00F0004057
:1056C00010BDFF2141EAD050C005704751EA000CDF
:1056D00000F113801CF5000F58BFBCF5000F01D47A
:1056E0008142704707D711F5000F58BF10F5000F22
:1056F00015D481427047894270471CF5000F04D5CC
:10570000BCF5000FF7D5884270474FF0807C1CEB4A
:10571000410F38BF1CEB400F01D28842704780EA2E
:10572000010081EA000180EA0100FFF7F8BE0000F5
:1057300090EA010F48BF81F000413FF556AD421A93
:1057400004D882F00042A0EB020011444FEAD0528C
:105750004FF07F4C1CEA410FA2EBD15318BF9CEADB
:10576000026F4AD04FF0004C4CEA00204CEA012175
:1057700021FA03FCB0EB0C0C0FD412F0FE0F36D064
:105780005FEA4C001DD5001240EBC25038BF704795
:105790001CF03F0F18BF70470BE0A2F101025FEA57
:1057A0001C2040EBC25038BF70471CF07F0F18BF61
:1057B0007047C3F12003994014BF401E20F0010040
:1057C000704780084FEA122308BF7047B0FA80FC88
:1057D000A2EB0C02CCF1280C60FA0CF093EA122F29
:1057E00004BF00EBC25070474FEAC3707047130A02
:1057F0005FEADC1008BF7047F6E79CEA026F04D04E
:1058000010EA5C0F08BF0020704710B5FFF713FFC8
:1058100040DFF63E81F0004070474FF000007047D7
:10582000FAF77BBF0CF00F03092B08BF082000F02C
:105830005F800A2B0BD0082B18BF704708BF1CF0E5
:10584000400F0AD04FF000004FF0000170471CF0ED
:10585000400F18BF4FF0004070471CF0100F08D0E9
:1058600020F0704300F07F4242EAD3014FEA4370D8
:10587000704700F0604021F07F4242EA000201F0F0
:105880007F4040EA727070474FF0FF0C4CF4E06CC0
:105890001CEA11531CBF9CEA030C9445C2BFDA42B8
:1058A00001EB02517047002B0DD0BCF1000F0FD05F
:1058B000002A01F00041A4BF41F0E04141F07F61C6
:1058C0004FF00000704701F000414FF000007047BA
:1058D00050EA01334FF09B0C18BF4CF0806C7FF402
:1058E0003BAB7047FBF794B9FBF71EBEFBF7ACBFB1
:1058F0001CF4801F11D01CF4E02F03D06FEACC31D0
:10590000490070474FF04050EFF3008222F07042A0
:1059100042EA000282F3008870474FF000007047AF
:10592000010202030405060708090A0B0C0D0E0FFD
:105930001010000000000000000001020304060730
:1059400008090000000001020304000002400000FA
:10595000000000A00000000005400000000000C89A
:10596000000000000C4000000000409C000000000F
:10597000194000000020BCBE0000000034400000C0
:10598000BFC91B8E00000004B5400000504BCFD0B3
:105990006607E2CF010000006C4100003E8251AA80
:1059A000DFEEA73401000000D9420000DCB5A0E220
:1059B0003A301F97FFFFFFFFB4450000FD25A0C848
:1059C000E9A3C14FFFFFFFFFFF3F00000000008081
:1059D00000000000FF3F0000000000800000000009
:1059E0003C5B000800000020140000006C0100086F
:1059F000505B0008140000204C09000088010008DA
:105A0000000000000000F07FFFFFFFFFFFFFEF7FBF
:105A10001C00000043000000F8FFFFFF0C00000026
:105A20000E0000000F0000002E000000100100001A
:105A300043000000F8FFFFFF00404040404040406E
:105A40004040414141414140404040404040404051
:105A500040404040404040404005020202020202F5
:105A60000202020202020202022020202020202044
:105A70002020200202020202020290909090909058
:105A80001010101010101010101010101010101016
:105A9000101010100202020202028888888888888A
:105AA0000808080808080808080808080808080876
:105AB000080808080202020240000000000000007E
:105AC00000000000000000000000000000000000D6
:105AD00000000000000000000000000000000000C6
